:1000000080A9002091620000ED0302007D620000E3
:100010007D6200007D6200007D6200000000000043
:1000200000000000000000000000000075630000F8
:100030007D62000000000000F96200007D620000A7
:100040007D650000255601007D6500007D6500008E
:100050007D6500007D6500007D6500007D65000018
:100060007D6500007D6500007D6500007D65000008
:100070007D6500007D6500007D6500007D650000F8
:100080007D6500007D6500007D6500007D650000E8
:100090007D6500007D6500007D6500007D650000D8
:1000A0007D6500007D6500007D6500007D650000C8
:1000B0007D6500007D6500007D6500007D650000B8
:1000C0007D6500007D6500007D6500007D650000A8
:1000D0007D6500007D6500007D6500007D65000098
:1000E0007D6500007D6500007D6500007D65000088
:1000F0007D6500007D6500007D6500007D65000078
:1001000053B94AB9002908BF00281CBF4FF0FF317E
:100110004FF0FF3000F00CB8ADF1080C6DE904CEE3
:1001200000F010F8DDF804E0DDE9022304B07047C8
:10013000704700BF034613F8012B002AFBD1181AA1
:10014000013870472DE9F04786468C460846089EE0
:10015000154674461946002B40F0C2808542B2FA1B
:1001600082F245D94AB1C2F1200300FA02FC2EFA0C
:1001700003F3954043EA0C0C94404FEA154EA8B2A5
:10018000BCFBFEF8230C0EFB18CC08FB00F943EA7D
:100190000C43994528D9EB1808F1FF3704D299454B
:1001A00002D9A8F102072B44A3EB0903A4B2B3FBC5
:1001B000FEFC0EFB1C330CFB00F044EA0344A0429F
:1001C00014D92C190CF1FF3304D2A04202D9ACF19E
:1001D00002032C44241A43EA07401EB1D4400023F2
:1001E00034607360BDE8F0874746DDE76346F1E7BA
:1001F00092BB431B01214FEA154EAFB2B3FBFEFC8D
:10020000200C0EFB1C330CFB07F840EA0343984517
:1002100062D9EB180CF1FF3004D2984502D9ACF149
:1002200002002B44A3EB0803A4B2B3FBFEFC0EFBBD
:100230001C330CFB07F744EA0344A7424ED92C19A0
:100240000CF1FF3304D2A74202D9ACF102032C44D3
:10025000E41B43EA0040C0E7C2F1200320FA03F1A7
:10026000954090402EFA03F303434FEA154EAFB288
:10027000B1FBFEFC0EFB1C10190C0CFB07F841EA4D
:100280000041884504FA02F422D969180CF1FF30C4
:1002900004D2884502D9ACF102002944A1EB08013F
:1002A0009BB2B1FBFEFC0EFB1C110CFB07F743EAF3
:1002B00001439F420ED9EB180CF1FF3104D29F424B
:1002C00002D9ACF102012B44DB1B41EA004192E769
:1002D0006046E3E76146F7E76046A3E76346B7E7B2
:1002E000834206D916B9002108467BE7C6E900E03B
:1002F000F9E7B3FA83F78FB9834201D3724508D87F
:10030000BEEB020460EB030301209C461EB90021F2
:1003100068E73846FAE7C6E9004CF8E7C7F1200C71
:10032000BB4022FA0CF41C432EFA0CF120FA0CF319
:10033000B84001434FEA14490EFA07F5B3FBF9F848
:100340001FFA84FE09FB18300B0C08FB0EFA43EA77
:1003500000439A4502FA07F240D9E31808F1FF304A
:1003600004D29A4502D9A8F102002344A3EB0A0360
:1003700089B2B3FBF9F809FB183308FB0EFE41EA1A
:1003800003418E452CD9611808F1FF3304D28E4504
:1003900002D9A8F10203214443EA0040A0FB0298DD
:1003A000A1EB0E014145CE46434602D306D14D4551
:1003B00004D2B9EB020E68EB04030138002EA6D07C
:1003C000B5EB0E0261EB030101FA0CFC22FA07F314
:1003D0004CEA0303F940C6E9003198E74046C5E717
:1003E0004346D9E7000000002DE9F843D0E907387B
:1003F000856903EB08042F34A5420F46164619D829
:10040000DFF86C80A3FB080117A3D3E90023FFF7F3
:1004100077FE0346601BA0FB080123F07F4412A374
:10042000D3E90023FFF76CFE20F07F403C60306092
:10043000BDE8F883DFF838900BA3D3E90023A5FBD0
:100440000901FFF75DFE20F07F440A480A2106A358
:10045000D3E90023E8FB0901FFF752FE20F07F40BB
:100460003C603060BDE8F8838D49FD1A070000004C
:1004700000CA9A3B00166BF1002800F062812DE95A
:10048000F04FB74C94F86A2012F001058DB040F09F
:10049000AB8194F82500FF2300F0030084F8263098
:1004A00014F03CFC94F86A00420727D494F8292001
:1004B00094F8353004EB820204EB8303D66AD3F858
:1004C000388086B1A64831460CF0CAFD33785B0609
:1004D00005D5062106F0F0FE002800F08781A0482F
:1004E00041460CF0BDFD337813F00E0F40F0BA809A
:1004F000236A93B10C200DB0BDE8F08F2A4604F1B9
:100500006B01C0F3C00014F0B3FDFF2884F826008F
:10051000CCD0284614F048FCC8E709F00DFC814611
:10052000002800F0758109F013FC8246002800F0D5
:100530006C810DF0E5F90546002800F06B81D0F8DC
:1005400094004FF6FF732B8605F11C0B002800F07A
:10055000538105F1840105F1880206F0B9FEB5F872
:100560008230804A23F4EF6323F0070343F48C7353
:1005700043F00103A5F882301346D2F80120C5F8F4
:10058000AB21C5F8B12113F8012B9B88A5F8AF3139
:10059000A5F8B53195F8AA3102F0010262F3000323
:1005A00062F3410385F8AA3195F8433003F03F0325
:1005B00063F07F0385F8433095F89A3023F0070302
:1005C00085F89A3095F8483023F00F0385F84830C5
:1005D0007F23002785F8DE304FF4C023C5F898311B
:1005E0002846C5E91577C5F89470A5F8987085F880
:1005F0004570EF86C5F83A70EF65A5F89E71A5F8CD
:10060000947110F0C3F885F86071C5F864910DF02D
:1006100079FD95F8A43160F3020385F8A4310DF05B
:1006200077FD95F8A43160F3C50385F8A43195F8FA
:10063000903167F3410385F89031012128460EF08F
:1006400001FA05F1E0000FF051FEC4E9189AC4F870
:1006500020B0C5E905772F70ED6115F001FE002887
:1006600040F0C68094F824300121C3F342030DF119
:100670002B008DF82B3006F0C7FF0246002862D011
:1006800098F8011030460CF0ADFA31233649A360DA
:10069000364BB4F86870A0FB01010025C01841F189
:1006A00007012DA3D3E90023C4E905552570656032
:1006B000E560FFF725FD206108F076FC00F10908F0
:1006C0003FB9357805F00F05A5F10105B5FA85F5B7
:1006D0006D0994F82400236965F3000010F001050A
:1006E00084F824004CD0224A099200201060022590
:1006F000204A214F04930BAE019305920321CDE9CB
:100700000200069443460090089607972A460B95E8
:1007100008F0E8FA314609F0A7FBA0B9174905919E
:100720004AF2D8330093CDE90300CDE901000797E1
:10073000089606944346012203210B9508F09EFA81
:1007400044E00CF09FB9236A002B3FF4D3AE0CF0C9
:1007500059F9CFE6AFF300808D49FD1A070000007C
:10076000E06400207244020000CA9A3B8C49FD1AE2
:10077000D464002061CC00002D9100006DC7000002
:100780002B4A2C48049303F24713069402959121B7
:100790001360A7FB000301FB0731274B0793274B8F
:1007A00005934FF6FF730992022703930BAE1EA326
:1007B000D3E900230B970896FFF7A2FC4346CDE947
:1007C00000503A462846032108F08CFA314609F0D9
:1007D0004BFB0028B7D194F86A3043F0010384F84A
:1007E0006A300CF087FE60B1002084E6122082E6B9
:1007F0000CF008F903207EE605F18C00C5F89400A2
:10080000A7E6012014F06CFAEEE7484609F09AFAE0
:10081000072070E6504609F0A1FA484609F092FA1E
:10082000F6E700BFAFF300808D49FD1A0700000016
:10083000D4640020002AE7842D91000061CC0000E0
:1008400070B590F824308AB0C3F342030D460446D5
:1008500001210DF1230016468DF8233006F0D4FE59
:100860007178024628460CF0BDF91F491F4AA0FBCB
:100870000131981841F1070119A3D3E90023FFF7CB
:100880003FFC23699842054621D21B1A002201929F
:10089000174A0293174BA21AA3FB023202219209B4
:1008A00000230A4409AE099113490591CDE90333A8
:1008B0000321D2B206960093184608F073FA314627
:1008C00009F0D2FA38B9256100200AB070BDFBD911
:1008D000C21A0023DBE70C200AB070BDAFF3008022
:1008E0008D49FD1A0700000000CA9A3B8C49FD1A89
:1008F000E0640020898888882D91000000000000B5
:1009000038B5194C9DF810E094F848C01CF001056A
:1009100023D163F3420C400194F83230A1874FEAAF
:10092000CE0E0EF0180E00F0200040EA0E0023F06C
:10093000380303430D4884F832309121A2FB0003B1
:1009400084F848C001FB023105A3D3E90023FFF777
:10095000D7FBC4E91000284638BD0C25284638BD11
:100960008D49FD1A07000000E0280020002AE784D6
:1009700010B504469DF8080022844FEA411CC000CF
:10098000A17D00F018000CF0200C4CEA000C0C4883
:1009900021F038014CEA010CA3FB0002912184F8FC
:1009A00016C001FB032104A3D3E90023FFF7A8FB32
:1009B000606210BDAFF300808D49FD1A0700000092
:1009C000002AE784000000002DE9F047044600F10A
:1009D000350190F8480094F832305B4DDFF86C81B7
:1009E000C0F3400060F386138CB084F8323008F016
:1009F0002DFB94F83220A38F5548E46102F0790270
:100A0000002784F832209121A3FB0002C4E9057776
:100A1000277001FB03214AA3D3E90023FFF770FBF2
:100A2000651B626C4B4B6760AD08A3FB053502F19B
:100A30000903984298BF3A46C5F3470522644FF030
:100A400031028CBF19460146A26005EB4502E76002
:100A5000216148F82210064608F0A6FA236A00F140
:100A600009074FEA450A002B4AD00DF12C09AA4488
:100A700008EB8A030993CDF820900694A38F34489D
:100A80004FF00008A3FB0002CDF80C80912101FB80
:100A9000032123690493304B0793304B05934FF0A8
:100AA000020A27A3D3E90023CDF82CA0FFF728FBE7
:100AB000104619464FF47A720023FFF721FB0435E4
:100AC000EDB2CDE9016003213B462A46CDF8008016
:100AD000404608F007F9494609F0C6F960B994F8AC
:100AE000483043F0010384F848300CF08FFA08B323
:100AF00000200CB0BDE8F0870C200CB0BDE8F087FA
:100B00000DF12C09CDE90A3321694B460AAA0320CD
:100B100001F006FA0028AAD10B99114808A3D3E9DD
:100B20000023A1FB0001FFF7EBFA0A9B20F07F47AF
:100B30001F449CE7504614F0D3F8D9E7AFF3008088
:100B40008D49FD1A07000000E02800207065002094
:100B5000002AE784BD86F21A2D910000D5D200004C
:100B600000CA9A3B000000002DE9F04F05468BB00B
:100B70008B46012002219A46144618F0C5FA00223D
:100B800002218146012006F0F3FB3B494FF4DC7261
:100B9000284606F07DFB461DF6B2384B00953246DE
:100BA0000121002008F016F910F0FD0F0BD0344998
:100BB0003448354A40F688031FF067F9324840F65A
:100BC00088011EF098FF314BA4FB0348204628A360
:100BD000D3E900234146FFF793FA2D4B20F07F47DE
:100BE000A7FB03310722E01A02FB071168EB0101A2
:100BF0004FF47A720023FFF783FACDE90170CDF844
:100C000000B008950695296995F94340214804915B
:100C1000214931EA240128BF014605911F4C079460
:100C20004FF6FE710391534632460121002008F031
:100C300025F810F0FD0F0BD011491248124A40F66A
:100C40009D031FF022F9104840F69D011EF053FF4E
:100C5000B9F1000F02D10BB0BDE8F08F01220221E3
:100C600010460BB0BDE8F04F06F082BBAFF300803A
:100C70008D49FD1A0700000030290020A9D8000086
:100C8000041E0200B0140200401D020000CA9A3B7C
:100C90008D49FD1A2D3D0100D53E010051D80000BF
:100CA0002DE9F0418468228E4FF6FF739A428CB092
:100CB00045D00546204610F07DF82B7D012B00F035
:100CC0001B81022B00F00E81002B00F0ED8094F8C8
:100CD0006061002E40F009812B8A678FCDE90A669A
:100CE00083B394F94330002BC0F253810023A4F85E
:100CF0009A31AA7C238FFD1802F003030135012BE2
:100D0000ADB237D0B4F89E31002B00F0FE809D428A
:100D100080F052815B1B9BB20022062BA4F89E310F
:100D2000628740F2EF8094F943309342C0F24981E8
:100D3000002322E09DF8271020460DF025FB0CB083
:100D4000BDE8F081238FAA7CFD1802F00303013572
:100D5000012BADB20ED0B4F89A31002BD2D0AB42F9
:100D600040F239815B1BA4F89A31B4F89E31002B14
:100D7000CDD102E00023A4F89E3194F8482063F31B
:100D8000820284F8482029460DF1270220460FF000
:100D900039FD7430CED0B4F898312BB1AB4240F26B
:100DA000E9805B1BA4F89831B4F894312BB1AB42C5
:100DB00040F2D7805B1BA4F89431658F16B9AF421F
:100DC00000F0C6800135ADB294F8DD3013F00107B4
:100DD0002ED1DDE90A130A46002B40F0C980002914
:100DE00000F0B8801F461846228EE4690694CDE9CB
:100DF00003560532984D0290CDE90017D2B2012179
:100E00000020059507F0CEFF10F0FD0F97D009F0F8
:100E100055F8844293D091499148924A40F26A53DE
:100E20001FF033F88F4840F26A511EF064FE86E7E7
:100E300094F943206FF30003002A84F8DD307FDB50
:100E400094F88200C0F3C00100F0070015F036F8F6
:100E5000B4F87A20B4F878301344628D03F23F136B
:100E600013440344804A81480721E3FB00211046D4
:100E700077A3D3E90023FFF743F9DDE90A1320F054
:100E80007F4220692261904235BF171A801A0020E4
:100E900000270A46002BA7D157EA010CA4D100284D
:100EA00058D019461F469FE794F89A3003F018036C
:100EB000182B7FF40CAFA18EB4F896218B1D9A42AB
:100EC000C4BF931F5B1AB4F89211CCBF9BB21346F8
:100ED000994200F09C80A4F89231A4F89431A4F8CF
:100EE0009821F4E63D2684F86061314620460CB036
:100EF000BDE8F0410DF048BA0023A4F89831A4F8F9
:100F00009431E4E60126334637E7628E052A97BF1F
:100F1000013240F2E2434FF4FA7392B203FB02F261
:100F2000B4F89C3142F2107101FB0323013BB3FB87
:100F3000F2F39BB2A4F89E31002B7FF4E8AE1CE7DD
:100F400094F88300012100F0070014F0B9FF7FE757
:100F5000354639E7002D43D00027114638463B4639
:100F600042E70023A4F8943120460FF0EBFC24E77D
:100F7000384639E708F034FF0146A0B30023A4F84F
:100F80009831238EC3801B230371006808F0F8FE9C
:100F90000AE794F885316BB3013B84F8853104F19D
:100FA000E00840460FF0E4F9B8B340460FF0E0F92E
:100FB000B8B30023638799E6082120460DF0E4F9D1
:100FC000BDE6A7B9D4F888315A0813F0010336D129
:100FD000C4F88821ACE63E2120460DF0D5F9AEE6F6
:100FE000002EB9D1ABE60123A4F89831DCE6134614
:100FF0000126C2E60AAA0BA92846FFF7F5F9DDE9A2
:101000000A231343CBD0237884F88531C7E7B4F89B
:10101000981100297FF45BAE5FE7FF200DF04CF9DB
:10102000C3E70246D4E9210106F06AF90028C0D1DD
:1010300094F848301B0744BFA38E638756E642F0FE
:1010400000421E46C4F888213B4696E6AFF3008076
:101050008D49FD1A070000000DD80000A01E0200F7
:10106000B0140200401D02008C49FD1A00CA9A3BD0
:101070002DE9F04F87B0CDE90432BDF84420037864
:101080000292BDF84820BDF840A0BDF84C90878F73
:10109000019104460392002B00F0FF80013FBFB294
:1010A000A368D4F81CB1A7EB090292B2002B0092FE
:1010B0000ADAE168626823F0004391422CBF8B4456
:1010C0009344A360ABEB030B94F88200C0F3C00120
:1010D00000F0070014F0F2FEB4F83280B8F1050F0A
:1010E00040F2E280009BBAF1050F18FB03F81FFAEB
:1010F00088F840F2E24540F2E480B4F87A20B4F88F
:101100007830134403F2D51318447D4A7D4B0721F0
:10111000E0FB023118464FF09613A3629623A38595
:1011200075A3D3E90023FEF7EBFF564620F07F407E
:1011300040F2E24303FB06F615FB08F5ABB2206173
:10114000B3FBF6F816FB08F080B283421FFA88F56D
:1011500080F095806A49C01A80FB010166A3D3E93B
:101160000023FEF7CDFF20F07F408344E38EB4F8E8
:1011700024211344994494F84330A9EB07094D44C2
:10118000DB09E58600F0A980E26C0099636D5C4F95
:1011900002FB1133636515F0CDF8054694F8840120
:1011A000C0F3420015F0C8F8054406FB05F5564BA0
:1011B00005F5742505F23F25A3FB0535AD0C636DE0
:1011C000E56405FB08F072080344963A934228BF91
:1011D0001346C4E91423059B40F2E24909FB03F3DB
:1011E000E3650023A0FB0701C4F88C3142A3D3E9D7
:1011F0000023FEF785FF049BABEB000B4348A0FBED
:101200000330800A09FB00F0A0FB07013AA3D3E9F1
:101210000023FEF775FF751B20F07F47029BA38616
:10122000039BA4F89C3131462046A4F832A00FF06D
:1012300023FB374BA18E3344881DB3FBF6F39AB2E0
:101240009042A4F8962104D2C1F57F41FA310A44B4
:1012500092B2019BA4F8922113B10023A4F89E310D
:101260005B462A4639462046FFF77EFC94F89031CB
:1012700043F0010384F8903107B0BDE8F08F1B1AEA
:101280001F4883FB00011CA3D3E90023FEF738FFAE
:1012900020F07F40ABEB000B68E7C38E1F44B0F833
:1012A00024311F44BFB2FBE6009B08F1010818FB84
:1012B00003F8BAF1050F1FFA88F84FF4FA753FF6F4
:1012C0001CAF4FF096130AF10106A3629623A38583
:1012D000B6B20A204FF4FA732CE7049B0848A3FB2C
:1012E000000105A3D3E90023FEF70AFF20F07F47A2
:1012F0003546013792E700BF8D49FD1A070000000F
:1013000000CA9A3B8C49FD1A83DE1B435917B7D19B
:101310007FC3C901000000002DE9F04F04460B68AF
:10132000077F1668D3F800A0638CD0F81E0095B034
:1013300015464A7CADF84C30FF2AC7F38013884627
:101340000C9212908DF83F3077D199461A4612AB25
:1013500093E803000DF1400B1090ADF84410FF0925
:101360000AF17101D4F800C00A915B463846CDF805
:101370002CC00CF0D3FE0A99002846D196F8AA3169
:101380000A9069F3410367F3000386F8AA311098C5
:10139000BBF80430C6F8B101A6F8B531DAF87130FF
:1013A000C6F8AB318B88A6F8AF31E38D94F83010D6
:1013B000A9722B81D4F82A306B60D4F83A30C5F882
:1013C000223005F1220094F83E300371052106F029
:1013D0001BF995F8273000F03F0060F3050385F80E
:1013E000273094F83F30C3F3040185F82810A18E0C
:1013F000E982012803F01F0389B206D91B3303F0E9
:101400001F030B2B01D80A9A59BB0022CAF81420DB
:1014100095F82C300B9862F3000385F82C30E568C2
:1014200001262146267108F09FFC28682E71294666
:1014300008F0A6FC15B0BDE8F08F0DF1400B10468A
:101440000DF13F015A4613F04FF99DF83F90277F69
:1014500009F102095FFA89F98DF83F9009F001025C
:101460007DE7D8F800305A60E38E2B83EB8A40F298
:10147000E24909FB03F71146638E0A9330460FF0E9
:101480000FFA94F83F3096F884215B0963F3430226
:1014900086F8842114F04EFF0D9096F88401C0F375
:1014A000420014F049FF0D9BBB4A034407FB03F3C2
:1014B00003F5742303F23F23A2FB03239B0C2B634E
:1014C0007B08963B6B6394F8313009FB03F36B6444
:1014D000238FA6F89C31394630460FF0CDF9AF4B3B
:1014E000AF4AC6F8A0213B44B3FBF7F39AB2A6F883
:1014F0009621298B881D824204DDC1F57F41FA3196
:101500000A4492B2A6F892216B68C6F88831234645
:1015100013F81C2FC2F34019DA0700F100814FF4D1
:101520008073A3839AF8260013F0C6FE04F12B0300
:10153000002800F0F080626AC4F82B20228D9A8087
:101540000C9BFF2B00F01C81BDF84C301298A4F8C6
:101550002930C4F82500BBF80430A4F823301098D3
:101560009DF83F30C4F81F00A377EB8A63862B8B6E
:10157000A386B6F89C31E38696F88431C3F3420320
:1015800084F8383030460CF0C7F9A882E080214654
:101590000B98D8F8044008F0E7FBAB8AE3801C23E3
:1015A000D4F800B02371B9F1000F40F0CB8084F87B
:1015B0001C902146584608F0E3FB95F86700B5F803
:1015C0005C90B5F85E40012100F0070014F078FC53
:1015D0004C4404F2D514DFF8CC910444834672489D
:1015E0004FF096130721C5E90333E4FB09013123CA
:1015F0000024B360746066A3D3E90023F460FEF7AF
:101600007FFD20F07F4030612D6B0A9A7D1BD8F85A
:101610000C7040F2E24303FB0277022122460120D4
:1016200005F0A6FE50460BF0D7FC07F2B347024682
:10163000A7EB0B07A7FB0901174655A3D3E9002326
:10164000FEF75EFDCDF804A0D8F8083057490091A8
:1016500020F07F49BA1C3A3BD2B220464B440121CC
:1016600007F0FAFB01287AD09AF82430DB0761D41E
:1016700030460CF051F94B4BA5FB035A044644A3EA
:10168000D3E9002328465146FEF73AFDD8F8083042
:10169000474A0792A3F13A08464B069620F07F4747
:1016A000A7FB0331E81A444B05934FF4F5730893F5
:1016B00033694FF0000BCDE903B34FF0070303FB91
:1016C00007116AEB01014FF47A720023FEF718FD4F
:1016D0000534E4B2CDE90170CDF8009043462246CE
:1016E0000121584607F0CAFA10F0FD0F0BD033491C
:1016F0003348344A40F2EB131EF0C7FB314840F246
:10170000EB111EF0F8F901220221104605F030FE1F
:1017100015B0BDE8F08FC4F82B00988010E72A4977
:101720002748284AFD231EF0B0FB2648FD211EF065
:10173000E2F9F4E60023012200931846114607F06F
:1017400049FB95E795F8273043F0400385F82730AB
:10175000281D12F0A7FD4FF00109288527E708F0A2
:10176000ADFB824580D019491548164A40F29223B4
:101770001EF08BFB134840F292211EF0BCF973E778
:101780000022C4F82520A4F82920E4E6AFF3008065
:101790008D49FD1A0700000083DE1B437FC3C9018A
:1017A000404B4C0000CA9A3B8C49FD1AF13C0100A9
:1017B000C13C01008D49FD1A2D3D0100041E0200AF
:1017C000B0140200AC230200F41902000824020045
:1017D0002DE9F04F8BB01F46BDF858300693CDE988
:1017E0000401BDF860309DF854A0BDF85CB00393CF
:1017F000002016460BF08CFE002800F070810AF0E5
:1018000001080446404607F011FC0290B8F1000FB1
:1018100071D1149B02993A4640460CF07FFC002897
:1018200040F06E81236A04F11C020792002B69D0FC
:10183000D4F82090D9F8005007F0010B99F8660011
:10184000C0F3C00100F0070014F038FBB9F85E30B7
:10185000B9F85C201A44B9F80E3000F23F10034486
:101860001344D548D54A0721E3FB00211046D0A3F5
:10187000D3E90023FEF744FC20F07F402861304686
:1018800013F06EFA94F833306FF3410384F8333079
:10189000FF2384F83430002E00F02581AAF10203E2
:1018A000012B40F2318194F848106AF3420184F828
:1018B000481094F833106BF30001DDE9042384F839
:1018C00033101499096861621499898821850399F4
:1018D000218604F11C0000960021FFF749F860649E
:1018E00014F0BEFC002840F01A812046FFF76CF887
:1018F0000BB0BDE8F08F062105F0DEFC002888D192
:101900001220F5E708F018FA0790002800F0768119
:101910000BF0F6FF0546002800F06D81203005F041
:1019200087FE05F11C09002840F02281032105F102
:10193000240014F069F9069BD5F894006B864FF6E5
:10194000FF73A5F834B02B86002800F01C8105F148
:10195000880205F1840105F0BBFCB5F8823023F460
:10196000EF6323F0070343F48C7343F00103A5F8FE
:10197000823095F89A304FF0000B23F007030121D5
:1019800085F89A30C5F894B0A5F898B028460DF0BF
:1019900059F87F23A5F836B0C5F83AB085F8DE309F
:1019A00005F13E0012F028FC95F8433060F3050382
:1019B000012185F843300DF1270014F025F9039B30
:1019C0009DF82720A5F89C317D4B85F845B0A3FBF9
:1019D0000213DB0803EB4303A2EB830295F84330C9
:1019E000A98EA5F89EB103F03F0385F8433095F822
:1019F0004830A5F894B1053223F0070385F8442058
:101A0000069A85F8483040F2E24B6E4B0BFB02FB26
:101A10004FF4C0225B44C5F89821881DB3FBFBF34B
:101A20009AB28242A5F8962102DD063A521A92B283
:101A3000A5F8922128460EF0A9FE594628460EF038
:101A40001BFF079BC5F86431002385F860310CF05B
:101A500059FB95F8A42160F3020285F8A4210CF04B
:101A600057FB95F8A42160F3C50285F8A42195F8E9
:101A70009021002363F3410285F8902105F1E000F5
:101A80000EF034FC95F8AA21149907F0010B6BF3C2
:101A9000410285F8AA214FF09612C5E90A223122A7
:101AA000AA600023149A6B60EB601268C5F8B1213C
:101AB00095F8AA218988A5F8B5116AF30002029960
:101AC00085F8AA210A68C5F8AB218A88A5F8AF2154
:101AD000C4F82090C5E905332B70ED61AEE60C200B
:101AE0000BB0BDE8F08F13F08DFD00283FF4D6AEAB
:101AF00014993846324613F0BBFA84F83400CDE628
:101B00000B200BB0BDE8F08F002013F04DF994F8D6
:101B1000333043F00203C24684F83330C3E6256A0B
:101B2000AB6F5BB128492948294A40F229431EF08E
:101B3000ACF9274840F229411DF0DDFF05F16C01A9
:101B400005F1680005F0C8FB064608B32F68AE67CC
:101B5000D7F86451002D41D0284608F0F3F83846F4
:101B60000BF0D4FE0023032023620BB0BDE8F08FFE
:101B700018491648164AC1231EF087F91448C12196
:101B80001DF0B9FFD2E605F18C00C5F89400DEE641
:101B90000F4A11490D4840F22B431EF076F90C48CC
:101BA00040F22B411DF0A7FFD0E700BFAFF300804C
:101BB0008D49FD1A0700000000CA9A3B8C49FD1AA6
:101BC000ABAAAAAA7FC3C901E81B0200B014020095
:101BD0003824020064150200901D0200084A0949D9
:101BE000094840F232431EF050F9054840F23241B4
:101BF0001DF081FFB0E7079808F0A4F8072077E60A
:101C000038240200901D0200B01402000000000001
:101C10002DE9F04F04468DB090F81C80238D406A6A
:101C2000ADF82C30E307C8F3C0170E461546C8F3CD
:101C300040180A9000F10B810023A383B37C707CD1
:101C400013F001031CBFD4F81E30C4F82B3004F18C
:101C50002B0214BF638CC4F82B30FF28938004F14F
:101C6000250904F11F0200F0E58004F11E0112F0C5
:101C70003BFDA37FBDF82C200A98C4F82500023351
:101C8000A377A9F804203368D3F80090EB8A638621
:101C90002B8BA386B9F83030E38614F049FB84F827
:101CA00038002F6838460BF037FE0021A882E0800C
:101CB00038460EF0F5FDD6F804A02068214608F05D
:101CC00053F8AB8AAAF806301C23DAF800408AF8E9
:101CD0000430B8F1000F40F0C7808AF81C805146EC
:101CE000204608F04DF8BB687A6895F86600B5F8AC
:101CF0001680F568664C934238BF1346C0F3C001A6
:101D000003F1090A00F0070040F2E24303FB08F880
:101D100014F0D4F8002202212D1A012005F028FB2E
:101D200048460BF0CBFBA5FB044557A3D3E90023A2
:101D3000834629462046FEF7E3F9CDF80490B368C0
:101D40005449009120F07F490BF10402A3EB0A03F0
:101D5000D2B24B440121002007F07EF810F0FD0FB5
:101D60000BD04D494D484E4A40F249331EF08DF894
:101D70004B4840F249311DF0BEFE4FF0000B5B4670
:101D800003220121CDF800B0584607F023F8384669
:101D90000BF0C2FDB36806463D48A3EB0A0AA8FB58
:101DA000000139A3D3E90023FEF7AAF919463D4BF8
:101DB00008933D4B069340F27933079709933B69AB
:101DC0008046CDE904B3104600234FF47A72FEF743
:101DD00097F9364B0722A9FB0331CDE9028002FBBC
:101DE0000911E01A65EB01014FF47A720023FEF746
:101DF00087F90536F6B2CDE9009053463246012107
:101E0000584606F057FF10F0FD0F0BD0224923482B
:101E1000234A40F27A331EF038F8214840F27A31F2
:101E20001DF069FE0122022110460DB0BDE8F04F01
:101E300005F09EBA0023BDF82C100A98C4F825308E
:101E4000A9F80430A777C4F81F0091801BE7184950
:101E50001248134A4FF431731EF017F810484FF42C
:101E600031711DF048FEE7E695F8273043F0400356
:101E700085F82730281D12F015FA4FF00108288543
:101E80002BE700BFAFF300808D49FD1A070000006B
:101E900000CA9A3BA13E0100041E0200B0140200D9
:101EA00038240200A53E0100D53E01008D49FD1AEF
:101EB000F419020000000000053838B5C3B20F2B3A
:101EC00024D880B20D460BF02FFD0446F0B190F9F6
:101ED0004330002B1ADB90F88200C0F3C00100F001
:101EE000070013F0EBFF0C4A00F5B7530B4815330E
:101EF0000721E3FB0021104605A3D3E90023FEF7E9
:101F0000FFF820F07F402860204638BD002038BD13
:101F10008D49FD1A070000008C49FD1A00CA9A3B42
:101F20002DE9F04F93B0FF270B930B1D0A9300236D
:101F3000CDE90E33054616468DF8377099463C4676
:101F400098469B469A4610AB0693554B0593554BC6
:101F500003930FAB01930EAB002000930223109369
:101F60000490029033460DF13702294606F0B8FF7F
:101F7000022812D0109BB3B9FF2C22D033684345FE
:101F80001FD0002F3FD0013FFF24FFB28DF8374014
:101F9000D9E72946002006F0EFFF109B022BF8D06E
:101FA000109B002BE8D040494048414A4FF4EE7363
:101FB0001DF06BFF3E484FF4EE711DF09CFDFF2CB1
:101FC000DCD19DF83700FF282AD011A9FFF774FF54
:101FD0000028B8D0FF2CDDF83880119B0AD051467C
:101FE0004046099306F0E2FF0A9B03EB0B02904286
:101FF000099B17D8C2469DF83740D6F80080DDF817
:102000003C909B469FE72B492848294A4FF4F2739E
:102010001DF03BFF26484FF4F2711DF06CFDB2E756
:10202000FF2C34D024480721ABFB000301FB0B310C
:1020300019A3D3E90023FEF763F8044600B13E3448
:102040001E4AA9F57423A3F51073934216D81A48B3
:102050000721AAFB000301FB0A310FA3D3E90023E8
:10206000FEF74EF8164BA3FB092304EB93440B9B9E
:10207000044400201C6013B0BDE8F08F09F1E8793A
:1020800009F5D4390AF1FF3A09F5A579DFE76FF0D0
:10209000090013B0BDE8F08F00CA9A3B00000000B1
:1020A0009D410100A1410100C8240200B0140200BA
:1020B00084240200D02402008D49FD1ABFBDF07FA8
:1020C00083DE1B43000000002DE9F043C66847682B
:1020D00073683D491A68D0F80090A7F57423A3F5FA
:1020E00010738B4283B0804607D907F1E87707F574
:1020F000D43709F1FF3907F5A57773681169DD8ACF
:10210000CDF8049006F1100301AA0220FFF708FFA2
:1021100000284ED10199A1EB09031B0237D40846D0
:10212000494606F043FF034628480721A3FB000267
:1021300001FB032122A3D3E90023FDF7E1FF34696A
:102140000444002C346109DB40F2E24305FB03F355
:10215000A3422FD2E41AA342FCD33461D8F8003052
:102160001A48A3EB0903A3FB0002072101FB03218B
:1021700013A3D3E90023FDF7C3FF154BA3FB0737D8
:10218000A0EB97402044306103B0BDE8F08348469F
:1021900006F00CFF03460D480721A3FB000201FBDC
:1021A000032107A3D3E90023FDF7AAFF3469241A0A
:1021B000C7E73469002CD1D103B0BDE8F08300BF7C
:1021C00000CA9A3B00000000BFBDF07F8D49FD1A98
:1021D00083DE1B4300000000F0B5C468636883B071
:1021E0000546002B62D116F0EBF8002016F054F9EA
:1021F0000021084616F0FEF800222521082016F0DE
:10220000B5F9454B019301A816F098F9434940F2FE
:102210005B6016F065FA237AC3F3420262F3061399
:102220002046237214F092FA13F0ECF958BB637A4B
:102230009B071FD127682E68384613F0DDFD064442
:102240006A6806F10901012016F0E6FC16F0C0FDEF
:1022500020460AF0CDFE811C3246C9B2384613F042
:10226000D9FD054668BB204613F068FD88B90020FB
:1022700003B0F0BD012012F027FD4178821C0078E8
:1022800016F06AFCD6E7607A10F0030018BF012050
:10229000F1E723492348244A40F229431DF0F5FD84
:1022A000214840F229411DF026FCE0E793F82C304C
:1022B0009A0798D01D48214616F040F816F0BAF952
:1022C000D5E7194A1A49174840F211431DF0DDFDC0
:1022D000184B0721A5FB030301FB05310CA3D3E930
:1022E0000023FDF70DFF1449024614481DF0CDFDF3
:1022F0000D4840F211411DF0FEFB1148214616F039
:102300001DF816F097F96FF08B00B1E7AFF300807E
:1023100000CA9A3B00000000D6BE898E5555550074
:1023200088160200B0140200042A0200995F01001E
:10233000881502008D49FD1AB42A0200882A02007D
:1023400045630100000000002DE9F041C46894F9E4
:102350001630002B8CB0C0F2FA80636805460E463A
:10236000002B40F0E980A37D6FF30003A37516F006
:1023700027F8002016F090F80021084616F03AF8E9
:1023800000222521082016F0F1F8012007F048FE70
:102390000746002800F0C38007F11C0016F016F96C
:1023A000834B0B930BA816F0C9F8824940F25B608F
:1023B00016F096F9A07DC0F34100253013F03CFDE6
:1023C0007D48214615F0BAFFA37D9B0603D46368C0
:1023D000002B00F0A180962016F012FC00231A4674
:1023E0001946184616F03AFB13F00CF9002837D1BD
:1023F000A37D13F0180F57D1D4F800802F68404602
:1024000013F0FAFC07446A6807F10901002016F08E
:1024100003FC16F0DDFC16F07BFB20460BF05CF8AD
:10242000011DC9B240463A4613F0F4FC804600282C
:1024300040F0948016B9636A002B4BD163683BB1BE
:102440005E4B0122022100209D6004F0C5FFA0BB6D
:10245000204613F073FCD0B900200CB0BDE8F08129
:10246000A07DC0F3C00012F02FFC07460DF12B0039
:1024700012F04AFF79788046BA1C387816F06CFB67
:102480009DF82B000022414616F08EFDB4E74C4922
:102490004C484D4A40F20B231DF0F7FC4A4840F2ED
:1024A0000B211DF028FBD7E7012012F00DFC41782D
:1024B000821C007816F050FB9EE744494148424A8E
:1024C00040F206231DF0E1FC3F4840F206211DF0DA
:1024D00012FBBDE73E4A07923E4A059240F2F312D4
:1024E00000930892CDE90366CDE9016606943B4668
:1024F0003146032206F0C2FB10F0FD0F9ED0364994
:102500003048314A4FF4FA731DF0BFFC2E484FF4A7
:10251000FA711DF0F0FA91E716F0E2FA64E72F493C
:102520002848294A4FF4C5731DF0AFFC26484FF4E4
:10253000C5711DF0E0FA2FE7636893F82C30D907D6
:1025400005D4636893F82C309A077FF50CAF2448C4
:10255000214615F0F3FE16F06DF87DE71A4A214981
:10256000184840F2E5131DF090FC1F4B0721A8FB13
:10257000030301FB08310CA3D3E90023FDF7C0FDE1
:102580001A4902461A481DF080FC0F4840F2E51136
:102590001DF0B1FA1748214615F0D0FE16F04AF8A2
:1025A0006FF08B0059E700BF00CA9A3B00000000A3
:1025B000D6BE898E55555500992600003C12002044
:1025C00088160200B0140200C02A02009C15020006
:1025D000996E0100356F0100341B0200502A020081
:1025E000995F0100881502008D49FD1A0C2B02002D
:1025F000882A0200796D010038B5044614F06EFB9C
:10260000A37DA27DC3F34103013303F00303032B36
:1026100008BF002363F3420214BF03F12500252005
:10262000A27513F009FC63680BB123694BB906F07E
:10263000BBFCC11C002016F051FBBDE8384016F071
:10264000C7BB16F079FB054606F0AEFCC11C0020A6
:1026500016F044FB16F0BCFB16F06EFB294606F0A4
:10266000A5FC0B4A03460721A0FB020201FB032144
:1026700005A3D3E90023FDF743FD23691B1A23615A
:1026800038BD00BFAFF3008000CA9A3B00000000D5
:102690008D49FD1A000000002DE9F04F8BB0044673
:1026A00016F00AF8C0B250B913F01EFCC448214617
:1026B00015F044FE0BB0BDE8F04F15F0BBBF16F0AF
:1026C0001BF8054616F07CFA074616F083FA814699
:1026D00016F0CAFC064616F0A9FC824616F032FA3D
:1026E000EDB2804616F00AFA13F0FEFB002DDDD0A5
:1026F000012007F095FC0546002800F0508117F0F6
:10270000FF07F6B240F0E680002E40F0DD804FF08B
:10271000FF093A464B463146204614F0FBFC0028A0
:10272000C4D02A7F616800238DF823305FFA88F7D0
:1027300002F00F03002900F0EF80616891F82C107F
:10274000880700F1E980072BB0D0A17D090740F18F
:102750004381002B40F0C7806B7F063B1F2BA5D821
:10276000042007F05DFC0028A0D016F039FB636A56
:10277000804643B9238C40F2712202FB03F3B0FB85
:10278000F3F203FB120823681A698E4B0721A2FBA0
:10279000030301FB023188A3D3E90023FDF7B0FC5A
:1027A0006FF4427C00EB0C031F3B62EB02024345DB
:1027B00072F10002FFF47AAF16F092F963680793A2
:1027C000484612F087FDE37D9907824640F1DF819C
:1027D000002800F0DC8183464FF0010815F09AFFD5
:1027E000CDE9028B09AB049305F11E0301932B7F06
:1027F000C3F3801301468046009300220123204644
:1028000014F0A2FC404615F0E7FE15F041FF002849
:1028100040F0CA816C48214615F090FD002F40F031
:10282000BD81626892F82C3043F0010382F82C30AD
:10283000A37D43F08003A37507F00EFC17220271FD
:102840004FF6FF72C28095F81CE043460746CEF370
:10285000401E00F11C0208F120081D6858689968A4
:10286000D3F80CC0C2F80CC010334345156050605B
:10287000916002F11002F0D11B6813603B7FBC60D5
:102880006EF345133B7716F057FA002E3861099B1B
:102890007B6108BF4FF0FF0987F81990E37D13F0C3
:1028A000020303D0BAF1000318BF0123BA7E63F319
:1028B0000002BA7607F0D0FBF860386839460BB0F2
:1028C000BDE8F04F07F0F6BB5FFA8AF012F08CFD1E
:1028D00081461EE7A07D5FFA89F1C0F3C00012F0C7
:1028E0001DFD814615E7012B40F086806A7F0C2A8A
:1028F0007FF4DCAE2A7FCDF80090194600230193C7
:10290000D20905F12403204614F05CFB00287FF473
:1029100027AF2B7F03F00F03002B6DD16B7F052BAF
:102920007FF6C4AE252B3FF6C1AEA27D02F0210298
:10293000202A09D16268002A00F0BE80052B7FF6AC
:10294000B5AE252B3FF6B2AE63682BB12B7F03F0FB
:102950000F03072B7FF4AAAE03209DF8238007F016
:102960005FFB054600283FF4A1AE07F075FB4FF66C
:10297000FF73EB8005232B71002F39D17F20AB7EB5
:102980002876002E08BF4FF0FF0968F3410328683E
:1029900085F81990AB76294607F08CFB86E60B4943
:1029A0000B480C4A40F2C7231DF06FFA094840F269
:1029B000C7211DF0A0F8A2E600CA9A3B0000000063
:1029C000916D01008D49FD1A796F0100502A0200B6
:1029D000B0140200C02A0200B9F1FF0F8DF8249054
:1029E000C2F380184BD0227E91453FF4B2AE93E7FC
:1029F00016F098F8C0B2C2E7062B8FD04521D94017
:102A000011F0010139D1012B10D16B7F0C2B7FF418
:102A10004DAE2A7FCDF800900DF123030193D2092A
:102A200005F12403204614F0CDFA08BB2B7F03F0F8
:102A30000F03042B7FF43AAE6B7F063B1F2B3FF650
:102A400035AEA37DDB077FF531AE15F063FE2B7F3E
:102A50000278C3F38013B3EBD21F7FF427AE0830A4
:102A6000062205F11E011EF0E6F900287FF41EAED5
:102A70006B7F002B7FF468AF18E66B7F5EE705F194
:102A80001E0A09AA5146404612F060FD00283FF494
:102A900040AFE37D03F0010343457FF43AAF514675
:102AA000062204F108001EF0C6F900287FF431AFB9
:102AB0002B7F03F00F034CE69620079216F0A0F848
:102AC000079A104615F0B6FF032007F0A9FA8046D2
:102AD00000283FF4EBAD07F0BFFA4FF6FF73A8F8FC
:102AE0000630052388F80430002F6AD17F23002E9A
:102AF00088F8183014BF4B46FF2388F8193098F82F
:102B00001A30D8F800006FF3410388F81A304146B4
:102B100007F0D0FA15F0FEFD06460322337862F383
:102B2000030333702B7F3278C3F3801363F3C71230
:102B30000C2332704846737012F0CCFBE27D920792
:102B400043D5002841D03178324641F0400102F8A7
:102B5000021B0168C6F8021083889380D5F81E30E6
:102B6000B3606B8CB381304615F036FD15F090FDE7
:102B700000283BD116F02CF9A37D234843F0010334
:102B80002146A3750BB0BDE8F04F15F0D7BB94F804
:102B9000168004F1190BC8F380181FE615F0C2FF68
:102BA000079B83F8C2003CE618491948194A40F2CD
:102BB000AB431DF06AF9174840F2AB411CF09BFF94
:102BC00028E615F0AFFFC3B291E7A37D3278C3F3D7
:102BD000801363F38612334603F8022BD4F81920CE
:102BE000C6F80220B4F81D209A80B7E707490848C4
:102BF000084A40F22F531DF048F9064840F22F5181
:102C00001CF079FFB6E700BFA56D0100582A02004D
:102C1000B0140200C02A02002DE9F041C468A28A63
:102C20004FF6FF739A4282B000F0D580054614F04B
:102C3000A1FB2B89628B208CA3831A4492B210448F
:102C400094F82730E28380B2411C21845E064FF065
:102C50000001618304F1220100F1988003F03F003C
:102C60000B4694F82810009004F1290011F0D2FAD4
:102C70000646D4E90C31A28B02FB0333A26B13444A
:102C8000E26B8B4294BFD21852188A4228BF0A4680
:102C9000636CE263226C134494F87E20636412F048
:102CA00004024FF00003A363236479D015F088FB7E
:102CB000002015F0F1FB201D15F040FC2389A17ABE
:102CC00040F25B6043EA014115F00AFD304613F023
:102CD000B3F82146584815F031FBA08915F090FF54
:102CE00094F8662094F86700C2F3C003002102F054
:102CF000070200F0070015F0B1FE204614F0EEFBCD
:102D000027682E68384613F077F806446A6806F19B
:102D10000901002015F080FF804616F02DF80020F4
:102D200016F044F8E36B94F8670003F12F02636C2C
:102D300000F00700012103EB420515F05FFC45445C
:102D4000054494F8670000F00700022826D0042804
:102D50000CBF4FF4BC73282301211D4415F050FC17
:102D6000284415F0FBFF15F0D3FEA18A0531324649
:102D7000C9B2384613F04EF8054698BB204612F00B
:102D8000DDFFD8B9002002B0BDE8F0810A4603F0AB
:102D90003F03218D11F08AFA06466AE71823DBE724
:102DA000D4E91A0104F0ACFA00287FF47FAF94F85C
:102DB0007E3043F0040384F87E3077E71F492048D3
:102DC000204A40F25B131DF060F81E4840F25B1190
:102DD0001CF091FED6E71C48214615F0AFFA15F01D
:102DE00029FCCFE7174A1949154840F251131DF045
:102DF0004CF8174B0721A5FB030301FB05310CA37E
:102E0000D3E90023FDF77CF91249024612481DF070
:102E10003CF80C4840F251111CF06DFE0F48214661
:102E200015F08CFA15F006FC6FF08B00ABE700BFD5
:102E300000CA9A3B00000000757701008816020066
:102E4000B0140200A02B0200995F01008815020057
:102E50008D49FD1AF42B0200882A0200755F0100DB
:102E6000F0B5C468A28A4FF6FF739A4285B000F0AD
:102E70008D80054614F07EFA2B89628B208CA3830B
:102E80001A4492B2104494F82730E28380B2411C75
:102E900021845E064FF00001618304F1220160D4B9
:102EA00003F03F000B4694F82810009004F129002D
:102EB00011F0B0F90646204603A914F0F3FB039B7A
:102EC00094F87E101A7861F3C3021A70039A94F88A
:102ED0007E301178C3F3400363F38201117015F063
:102EE0006FFA002015F0D8FA201D15F027FB238972
:102EF000A17A40F25B6043EA014115F0F1FB3046F4
:102F000012F09AFF0399204614F0A0FB21463648A0
:102F100015F014FAE08915F073FE94F8670000F0DC
:102F2000070015F087FD27682E68384612F064FF09
:102F300006446A6806F10901012015F06DFE15F0DE
:102F400047FFA18A05313246C9B2384612F062FF06
:102F5000054610BB204612F0F1FE50B9002005B026
:102F6000F0BD0A4603F03F03218D11F09FF906469C
:102F7000A1E71E491E481F4A4FF482731CF085FFCB
:102F80001C484FF482711CF0B6FDE7E71A48214651
:102F900015F0D4F915F04EFBE0E7164A174914482E
:102FA000FA231CF072FF164B0721A5FB030301FB5C
:102FB00005310BA3D3E90023FDF7A2F8114902461E
:102FC00011481CF062FF0B48FA211CF094FD0F48D9
:102FD000214615F0B3F915F02DFB6FF08B00BEE71D
:102FE00000CA9A3B000000007175010088160200BB
:102FF000B0140200002C0200995F01008815020045
:103000008D49FD1A502C0200882A0200755F0100CC
:1030100008B50346034A044801211DF06FF900205A
:1030200008BD00BFD4300200E812020002488368E5
:103030005B6A03B118477047281002000348836891
:10304000DB6903B118476FF0570070472810020082
:10305000024883689B6903B1184770472810020033
:1030600010B4034606480A4681680C691CB119462B
:10307000234610BC18476FF0570010BC704700BFC4
:10308000281002000146024883685B68184700BFA9
:103090002810020080B50C4B00AF88B01B686A4650
:1030A0000A49C2E905134FF400739383084B42F8B1
:1030B000103F084800234FF4E25102F0FDF96FF091
:1030C0001500BD4680BD00BF28100200E53002009B
:1030D00003000001E812020010B50E4C20461DF05E
:1030E000F4FB18B9BDE81040FFF7D4BFFFF79EFF0F
:1030F000FFF7AEFFA3682BB11B6C1BB10649002282
:1031000020469847A3681B6A0BB1024898470020E5
:1031100010BD00BF281002001D3100002DE9F04F46
:103120008C4E8D4FB3688FB00393039BDB6B002BEA
:1031300040F00181B468A36B002B40F00481E36A86
:1031400023B13046984708B9FFF778FFFFF776FFBD
:1031500050B13B68BBB981480022002319F068F9DF
:10316000386080B9FFF774FFB368DB6A1BBBDFF818
:10317000F0817C4D98F80030032B00F2D280DFE81C
:1031800003F01F3AA1C23B68D9681A8AB368DB68AA
:1031900073B130469847014638680C3003F072FE30
:1031A0003868048A002CDFD103F0A8FD3C60DBE71F
:1031B0006FF05701F0E7304698470028B5D0D6E7C2
:1031C000694C01212046FFF74BFF0028ADD0237842
:1031D0005A1E012A01D9052B07D118461CF07FFC85
:1031E0000123286088F80030C4E7604A6048022163
:1031F0001DF084F8BEE7DFF870A1DFF878B19AF827
:1032000000001CF06CFC2968401A5844FFF728FFA6
:103210002B681B1A044602932B60002B6FD10121EF
:10322000CDE900A100220023402003F021FFDFF8B8
:1032300048910121C9F8000040B902904F4A4C481A
:103240001DF053F8029B88F800306EE79AF80030C2
:10325000022B2CD0052B25D0012B2BD19BF8023033
:103260009AF800002B60D9F800B01CF038FC4149F6
:1032700002460BF10C001DF01AF9D9F800000C30D1
:103280001DF00DF92B6898421AD23D4A38480121A9
:103290001DF02BF8D9F8000003F030FD032388F867
:1032A00000302CE0BBF80230C3F30D03D8E7BBF8C5
:1032B0000230D5E7334A2E481DF020F8029BCFE7B5
:1032C0000223ECE7DFF8B0902968D9F800301A8AB9
:1032D000D8681044FFF7C4FED9F800100B8A0344E5
:1032E0000B822B68A3EB00090446C5F80090B9F1E6
:1032F000000F04D124481DF039FB88F80090002C01
:103300007FF438AF11E72968212928BF212105A8BA
:10331000FFF7A6FE2B681B1A04462B60002BEED18C
:10332000BDE71A491A481B4ACA231CF0AEFD1948CA
:10333000CA211CF0A1FD3046984700287FF4FAAE60
:103340000FB0BDE8F08F3046984700287FF4F7AE05
:10335000F6E700BF28100200B0480020F01300205C
:10336000FB880020AC480020FA880020FE300200D4
:10337000E8120200F6880020A84800201031020060
:103380002E310200D4300200D41300204654020033
:103390008231020049310200F8B50D4D0D4E0E4F3D
:1033A0004FF0FF334FF0FF32284619F041F8044642
:1033B00003F0B4FE034638B10121384632461CF012
:1033C0009DFF204603F09AFC1AF090FBE8E700BF4F
:1033D000D41300209F310200E812020070B5184893
:1033E00088B003F0A7FE00220023CDE906230023C6
:1033F0006FF00802CDE90323CDE9013300931149B1
:10340000114B12484FF4806219F09CFE10490F488E
:103410000B4D104E104C19F0A5FD4FF0FF324FF040
:10342000FF33284619F004F8014630461DF09EFA95
:10343000A3685B69002BF0D020469847EDE700BFFA
:10344000B81300204089002099330000A814002000
:10345000B7310200F01300202810020070B50C46AE
:10346000002934D002680B1F9B1AD90823F00703E8
:1034700013445D88E8070DD4154A16491648AF2352
:103480001CF003FD214615481CF0FFFCAF2110483D
:103490001CF0F2FC10461CF071FB084432F830605E
:1034A000801B81420BD00A4A0D490B48B7231CF000
:1034B000ECFC21460B481CF0E8FCB721E7E725F0BF
:1034C00001055D80BDE8704010461CF014BC70BD65
:1034D000CC310200EF3102008231020000320200E2
:1034E000383202005E3202002DE9F8434B1E0B40D9
:1034F00006680F46144611D0C1F1000909EA010916
:103500004A46042A03F1FF3128BF042219420CD194
:103510001F46E4B900252846BDE8F883042913D8DE
:10352000BDE8F84311461CF017BC2D492D4A2E4822
:103530004FF4A2731CF0A9FC2C481CF0A6FC2948EF
:103540004FF4A2711CF098FC99460422E1E7B3689D
:10355000B3EBD40FDED904F10B013944891AC90841
:1035600030461CF061FB80460028D3D009F10405E9
:1035700005EBC0057B1E35441D44B5FBF7F57D43C7
:10358000A5EB09052C442B1F07349B1B24F00704D3
:10359000A41BB0EBD30F4FEAD3074FEAE40408D2E1
:1035A00001463A4630461CF08CFB414630461CF042
:1035B000EAFA394630461CF0E1FA3844844207D230
:1035C000304622461CF07DFB214630461CF0DBFADB
:1035D00006EBC706738843F0010373809BE700BFC7
:1035E0009A320200CC31020082310200B532020070
:1035F000B2F5802F2DE9F0410ED33C493C4A3D48BD
:1036000040F2EB131CF041FC3B481CF03EFC40F246
:10361000EB1137481CF030FC042A0CD83749344AE7
:1036200034484FF4F9731CF030FC35481CF02DFC85
:103630004FF4F971EDE7043ACD1D8E1825F007051A
:1036400026F00706761B172E4FEAD6070CD82D4911
:10365000274A284840F2FB131CF017FC28481CF0AE
:1036600014FC40F2FB11D4E7B7FA87F4C4F120024E
:10367000C4F12404A4000734E408631C4FF00008DC
:10368000BB420560AF60C5F80C800CD91E49184AD2
:1036900018484FF403731CF0F8FB19481CF0F5FBB5
:1036A0004FF40371B5E74146920005F110001DF09B
:1036B000BAFB630043F001036B8005EBC4023B1BC4
:1036C0005900A5F800805180AA1925F83440A2F8C5
:1036D0000280AB5305EBC70321465A8842F0010232
:1036E0005A802846BDE8F0411CF04DBAD2320200A3
:1036F000CC31020082310200E8320200FF320200C7
:103700002033020039330200623302002DE9F04F0A
:1037100091B00546009302F004030193C2F3C20383
:10372000013304938307DDF8689002920E4640F05F
:10373000FC81041D30B1072909D86FF01B0011B0BE
:10374000BDE8F08F01F007063444C6F10806009B7F
:103750004FF000084FF0040B591ECDF80C8047467F
:1037600043464FF0FF32DA460DB1009820600498CE
:10377000002800F3DF809B48DDF800C0844503D3B8
:1037800099488445C0F0D680DDF808C0A4EB050E4A
:103790001CF0020F4FEA9E0000F0E7804FF0000C93
:1037A000D1E07A2862D84B280FD847285ED829283C
:1037B0002DD8252859D059D820287DD0A0F123090B
:1037C000D9F1000343EB090376E04C382E284DD89D
:1037D000DFE800F0724C4C4C4C4C4C4C4C4C4C4C7C
:1037E0004E4C4C4C4C4C4C4C4C5C4C4E4E5C5C5CD3
:1037F000724E6F4C724C184E184C4C817E4E4C4C95
:103800004E4C7E00002000234FF0040B3CE02A3891
:103810004FF0010EC0B20EFA00F04FF6DA7E10EA59
:103820000E0F49D110F0625E30D110F0010343D089
:103830007046013C5C44B4FBFBF40BFB04F4002D2C
:103840005ED0AAEB050EA644B6453FF676AF00283B
:1038500068D1BAF1040F43D1E14659F8040B206056
:103860000434CC464FF0040A26E0013A002323E05A
:1038700011F8013C6C2B30D111F8023C00206C2B6C
:103880000346C1D14FF0080BDA46D2E70CF1070925
:1038900029F0070C0734FCE802AB24F0070435B12B
:1038A00005982044B0423FF648AFC4E900AB083465
:1038B00000234FF0080BDA4611F8010F002800F042
:1038C000BC80002B7FF46DAF2528F5D10132012398
:1038D0004FF0040BEFE7184695E700200346A8E7F2
:1038E000BAF1080F40F09B800CF1070929F0070C92
:1038F000FCE8029AC4E9009A08344FF0080ADBE7B2
:1039000080B9BAF1040F02D10CF10409A8E7BAF1A9
:10391000080F40F084800CF1070929F0070909F12C
:10392000080CE9E70498E1460138049059F8040BC3
:10393000009019E70298800748D5A4EB050E4FEADE
:103940009E004FF0010CBEF5007F1DD32749284A89
:1039500028484FF41F731CF098FA27481CF095FA7A
:103960004FF41F7122481CF087FA0F2F0ED8002D3C
:1039700046D007F1400CEC440CF8200C0CF8102C4D
:1039800003980130039020E00F2F0CD91749184AF3
:10399000184840F281231CF078FA18481CF075FA98
:1039A00040F28121DEE7BDB107F1400EEE44C0B226
:1039B0000EF8200C0EF8102CBCF1000FE0D060F0D7
:1039C0007F000EF8200C08F101080137C5F108004E
:1039D0000434CC4605906FE7BCF1000F10D00136DF
:1039E000F3E700BF600F0200BC540200465402001F
:1039F0008D33020082310200BB330200DC3302004F
:103A0000019802360028E0D100980592CDE90631F0
:103A1000FCF790FBDDE90631059A0644D5E7444AF8
:103A20004449454840F2C6231CF02FFA514643480A
:103A30001CF02BFA40F2C62194E7631BB3F5806FAC
:103A40000CD33C493A4A3C4840F2D2231CF01DFAC0
:103A50003B481CF01AFA40F2D22183E71DB9A6F1C7
:103A60000804E0186BE6019A28609B082B709DF80B
:103A70000C30C2B1EB7085F80280B8F1000F05D0B0
:103A800008A80022C5F1010C97420ED1C5F101032F
:103A90000DF120094FF0000A02930DF1300B57454C
:103AA00012D1601B4BE66B70E5E710F8013B19067D
:103AB00008D50CEB040EB64503F07F033FF63DAE90
:103AC00004F8013B0132DFE7B8F1000F03D099F9A8
:103AD0000020002A17DB019BD3B11AF80B2004F851
:103AE000012B0022029B18191044B0423FF625AE6C
:103AF00099F8000004F8010B0099039220461DF08C
:103B00006AF9039A14440AF1010A09F10109C6E7A6
:103B100099F8002055F822300093019B45F8223097
:103B20000098FCF707FB421CDCE76FF00D0006E68F
:103B30008D3302004654020082310200F633020047
:103B40000B3402002DE9F04F97B000AF8946D7F84B
:103B500080B0FA623B62044658B9A849A84AA9480D
:103B600040F299331CF091F940F29931A4481CF0CD
:103B700083F9CBF3C00390F802A07B6141B945788B
:103B800000780AEB800020444D4517D8A0EB0409CB
:103B9000E378FB61BAF1000F02D01BF0010F16D1E0
:103BA000FB6953BBFB6A1BB13A6A494620469847FA
:103BB0004D4628465C37BD46BDE8F08F461C304672
:103BC000FCF7B8FA0130304409F10109DCE7237849
:103BD00062687A62FA6A9900B96104EB8301002A8B
:103BE00040F001814D460E4601EB0A094FF00008F6
:103BF0004E454CD101EB0A0610E01BF0020FD1D06C
:103C000023789A00BA6162687A62FA6A04EB8301E7
:103C1000002A77D14D4601EB0A0690461BF0050FAE
:103C20000CBF02230123FB62FB6906EB430A0BF086
:103C30000203BB625645BCD016F8021B16F8013CC5
:103C400054F82390704B994502D3704B994536D365
:103C50007B69002B40D0786A1CF0D8F800283BD054
:103C6000E9468AB06A466A4B53617B6AC2E906310B
:103C70004FF400731384674B42F8103F66480023EB
:103C80004FF4125101F018FC023DCD46D2E716F870
:103C9000013BF96254F82300FCF74CFAD7F8843062
:103CA000F96A01304BB1D7F8883098453EBFD7F854
:103CB000843023F8180008F10108054498E77B696F
:103CC00023B1786A1CF0A2F80028C9D11BF0010FBB
:103CD00005D1FB6AED1AADE7BB6A002BAAD04846B6
:103CE000FCF728FAD7F8843053B1D7F888309845D4
:103CF0003FBFD7F88420431C22F8183008F1010890
:103D0000054497E7BAF1000F73D01BF0040673D097
:103D1000D046002607F1480052463B61B9621DF0CB
:103D20005AF8B96A3B6901EB0A02BA62FA69F969A1
:103D30005200FA60BA6A02EB41023A610BF00202E9
:103D4000BA60BA6A39698A4268D162787A621BF0CD
:103D5000020F32440CBF4FEA580100211BF0010F43
:103D6000D2B240F0E4801BF0040F14BF40460020A4
:103D70007B616270A070E1703A6AB969FB6A2046A3
:103D80009847051EFFF615AF7B6923707B6A637049
:103D9000FB69E37041463A6AFB6A84F802A007F1C6
:103DA00048009847B0F10008C0F2F580BB693A6A54
:103DB000A9EB0A01C91AFB68C91AD7E90A0398478F
:103DC0000028C0F2EA80A84408EB00054FF0000B81
:103DD00007F1380AB345C0F0AC8000213A6AFB6AAB
:103DE00008469847E5E656464FF0000807F13800C8
:103DF00092E75646D04696E7B04694E72234020052
:103E00008D33020082310200600F0200BC540200B8
:103E10003D34020004000001D8120200BA6A12F810
:103E2000021BBA6212F8015C5D4A54F82500904208
:103E300002D35C4A904218D37A693AB1786A7B60BF
:103E40001BF0E4FF7B6800287FF47BAFBA68002A90
:103E50004CD00F2E40D95449544A554840F24D4356
:103E60001CF013F840F24D4180E67A693AB1786A65
:103E70007B601BF0CBFF7B6800287FF462AF1BF0F8
:103E8000010F0BD00F2E27D94749484A484840F226
:103E900043431BF0FAFF40F2434167E61BF0040F77
:103EA0003FF44FAFB8F10F0F09D942493F4A40489C
:103EB00040F246431BF0E9FF40F2464156E608F166
:103EC000280207F1300008F1010102EB000808F8B0
:103ED000105C5FFA81F834E706F1280207F1300040
:103EE000711C161806F8205CCEB22AE7B8F10F0F45
:103EF00009D930492D4A2E484FF48A631BF0C5FF7B
:103F00004FF48A6132E608F1280207F1300C08F11B
:103F10000100944407F1580252FA80F008F10208B7
:103F20000CF8101C5FFA88F800F8105C09E7002014
:103F30001EE71BF80A3087F8373054F82390D7F87B
:103F400084302BB3D7F888309B4521D2D7F8843002
:103F500033F81B803A6AFB6A012107F13700984762
:103F600000281ADB0544B8F1000F06D14846FCF7DB
:103F7000E1F800F101081FFA88F83A6AFB6A414645
:103F800048469847002808DB05440BF1010B21E760
:103F90004FF00008DEE745460BE6054609E600BFA0
:103FA000600F0200BC540200E03402008D330200B6
:103FB00082310200FF340200014B1860704700BFDD
:103FC000D010002080B505460E461746984619F0D9
:103FD00035FF03461CF0BAFFDFF81890044649F895
:103FE0000030424630463946A84754F8090002F0EE
:103FF0006DF900BF0800000038B50D4604462022C8
:1040000000211CF010FFEB68E361AB68A3612B6833
:1040100023626B6863620022A2622A6923B1591E7F
:10402000194208BF42F0010222610122002104F17D
:104030002C001CF0B0FC48B105490648064A2F2365
:104040001BF023FF04482F211BF016FF38BD00BFD3
:104050005635020082310200303502002DE9F04F62
:1040600089B0CDE90123436A00278B420446884684
:1040700005970797BA4654D300F11406EFF311855C
:10408000202383F31288BFF36F8F3046A9461AF0BE
:1040900025F958B94D4A4E494E4888231BF0F5FE84
:1040A00031464D481BF0F1FE882163E030461AF09E
:1040B00039F9079A2AB1394620461BF0C5FF00237B
:1040C000079306A920461BF0EDFE0699414583465D
:1040D00030D32268236A13F8221021F0030103F879
:1040E000221003EB820A2168424620461BF0FEFEA6
:1040F000E3682060984218D04FF0000B30461AF069
:10410000FBF850B389F31188BFF36F8F059929B17C
:10411000A2690AB12046904700230593BBF1000F26
:10412000ACD1504609B0BDE8F08F236943F00803D5
:104130002361E1E718B120461BF0F2FEDEE7DDE97E
:104140000132134339D003911CF089FC0399A0BBC1
:104150009DBB30461AF0D0F878B91C4A1F491D485B
:1041600040F231131BF091FE31461D481BF08DFECD
:1041700040F2311115481BF07FFE85F31188BFF323
:104180006F8FDDE9012304F12C0018F043FA834618
:10419000EFF31189202383F31288BFF36F8F30462A
:1041A0001AF09CF800283FF475AF3046BBFA8BFB41
:1041B0001AF0B8F84FEA5B1BA0E707AB05AA204648
:1041C00027681BF0CAFE834698E700BF5F350200F0
:1041D0008C35020082310200A1350200B7350200A1
:1041E000CE3502002DE9F0410446C36908460E466B
:1041F000984704F114050746EFF31188202383F351
:104200001288BFF36F8F28461AF068F868B91B4A06
:104210001B491C4888231BF038FE29461A481BF00E
:1042200034FE882115481BF027FE28461AF07AF83C
:10423000337843F00103337061683A4620461BF03F
:1042400055FE606020461BF01AFF28461AF054F80D
:1042500068B90A4A0D490B4840F231131BF015FEAC
:1042600029460B481BF011FE40F23111DAE788F3C2
:104270001188BFF36F8FBDE8F08100BF5F3502008A
:104280008C35020082310200A1350200B7350200F0
:10429000CE3502002DE9F843044600F11407EFF390
:1042A0001188202383F31288BFF36F8F38461AF0EA
:1042B00015F8054668B9354A3549364888231BF054
:1042C000E4FD394634481BF0E0FD88212F481BF0FF
:1042D000D3FD38461AF026F82369A26813F0080FB8
:1042E00002D163689A4200D9636A9B1A002B3FD0BF
:1042F000216A11F8223013F0030001EB82093AD051
:10430000022803D151F82260B60805D1D8071FD47E
:10431000E369484698470646A168324620461BF0A6
:10432000E5FD3146A06020461BF0EEFD384619F051
:10433000E3FF10BB154A1949164840F231131BF030
:10434000A4FD394616481BF0A0FD40F23111BDE72F
:1043500043F0020301F822304846E369A568984714
:104360002946024620461BF0C1FD0025A060DDE77E
:104370001D46A946DAE70546FBE788F31188BFF337
:104380006F8F002D8BD14846BDE8F8835F35020062
:104390008C35020082310200A1350200B7350200DF
:1043A000CE3502002DE9F0410446C36908460D46AA
:1043B000984704F114060746EFF31188202383F38E
:1043C0001288BFF36F8F304619F088FF68B9284A0A
:1043D0002849294888231BF058FD314627481BF0FF
:1043E00054FD882122481BF047FD304619F09AFF02
:1043F0002B786FF300032B7023699B0705D5E268C8
:10440000236A03EB82039D4222D12B786FF3410391
:104410002B70D4E90231994204D13A4620461BF070
:1044200065FDA060394620461BF06EFD304619F050
:1044300063FF90B90E4A12490F4840F231131BF046
:1044400024FD31460F481BF020FD40F23111C9E731
:104450002B6867F39F032B60E8E788F31188BFF3AD
:104460006F8F04F12C00BDE8F04118F06BB800BF6D
:104470005F3502008C35020082310200A135020056
:10448000B7350200CE35020070B5044600F11405C0
:10449000EFF31186202383F31288BFF36F8F284632
:1044A00019F01CFF68B91B4A1B491C4888231BF0E4
:1044B000ECFC29461A481BF0E8FC882115481BF043
:1044C000DBFC284619F02EFF2369A06813F0080FC3
:1044D00002D16368984213D9646A241A284619F0F5
:1044E0000BFF78B90B4A0F490C4840F231131BF00F
:1044F000CCFC29460C481BF0C8FC40F23111DDE72A
:104500001C1AEBE786F31188BFF36F8F201E18BFCC
:10451000012070BD5F3502008C350200823102003F
:10452000A1350200B7350200CE3502002DE9F84F63
:1045300004460846A38B1907154612D4022803F037
:10454000070165D120461BF0C2FD88B1013804285F
:1045500000F23781DFE810F05C0035018200D40002
:10456000040101280CBF43F0100143F02001A18396
:104570001434204619F0C0FE002840F09D819A496D
:104580009A4A9B4840F231131BF07FFC2146B1E070
:1045900003F00702501F01281ED80020062A2768B2
:1045A000C4E9000014D13A4603E0E08B0130E08317
:1045B0001268002AF9D123F0070343F00202A28314
:1045C00020461BF084FD90B342F02002A2832EE02F
:1045D00023F007039AB2F2E7042A33D123F007034A
:1045E0009AB2A28320461BF072FD10B142F0200265
:1045F000A283A38B03F00709894540F0EC80A18BCF
:10460000CA0640F1508121F01003A38301F0070195
:10461000D4F81880A38BB8F1000FB9DA002227680C
:1046200023F00703C4E9002243F00103A383A38B13
:1046300003F00709894540F0CF80002FDFD0002626
:10464000B24644E06B496C4A694840F21B131BF0C8
:104650001CFC40F21B1168481BF00EFC49B1674975
:10466000654A63484FF4AB731BF00FFC4FF4AB711A
:10467000F1E723684BB962495F4A5D4840F257133E
:104680001BF003FC40F25711E5E723691E684EB9A1
:104690005C49594A56484FF4AD731BF0F6FB4FF492
:1046A000AD71D8E7A38B23F0070343F006039BB259
:1046B000A3830F4688464FF00609A268002A40F0FF
:1046C0008D80002F40F08D80002E98D0BA4643F0A8
:1046D000080304F1140BA383584619F00DFE0028BB
:1046E00040F09A804049414A414840F231131BF062
:1046F000CCFB594644481BF0C8FB40F23111ADE0F9
:10470000022909D041493C4A394840F25D131BF067
:10471000BCFB40F25D119EE7E78B4FB13C49364A46
:1047200033484FF4AF731BF0B0FB4FF4AF7192E717
:1047300023695E684EB933492F4A2D4840F2611310
:104740001BF0A3FB40F2611185E7A38B23F0070365
:1047500043F004039BB2A383B8464FF00409ACE7CF
:10476000012909D02B49244A21484FF4B2731BF088
:104770008CFB4FF4B2716EE723684BB920491E4A97
:104780001B4840F265131BF080FB40F2651162E7A5
:1047900023699E684EB91B49174A15484FF4B473F4
:1047A0001BF073FB4FF4B47155E7A38B23F00703A1
:1047B00043F005039BB20027A383B8464FF00509D9
:1047C0007BE70C490C4A0A4840F26B131BF05DFB77
:1047D00040F26B113FE7002700266EE74FF0010A19
:1047E00075E7924673E700BFB73502005F350200F8
:1047F0008231020046540200E3350200083602000E
:104800001436020037360200CE3502004E36020062
:10481000643602007336020085F31188BFF36F8F90
:10482000BAF1000F1CD177BB16B126492046B0471C
:10483000EFF31185202383F31288BFF36F8F58465F
:1048400019F04CFD38BB204A2049214888231BF031
:104850001CFB59461F481BF018FB88211A48FBE631
:10486000A1680029DFD00D680029DCD0D1F804A0B0
:1048700043464A462046D0471DB12B6829461D466F
:10488000F2E72B46FAE7394643464A4620463F6858
:104890001BF049FCC7E7584619F044FDA38B23F0F1
:1048A0000803A383ABE68B067FF562AE21F02003FD
:1048B000A38301F0070145E685F31188BFF36F8FED
:1048C000BDE8F88FD94800005F3502008C35020042
:1048D00082310200A1350200F8B504460D4600F110
:1048E0001406EFF31187202383F31288BFF36F8F31
:1048F000304619F0F3FC68B90C4A0D490D4888237D
:104900001BF0C3FA0C4831461BF0BFFA0748882158
:104910001BF0B2FA304619F005FDA5613A46204673
:104920000121BDE8F840FFF701BE00BF5F3502007E
:104930008C35020082310200A13502002DE9F047DA
:1049400004460F461BF0DFFB051E68DB04F114096B
:10495000EFF3118A202383F31288BFF36F8F484649
:1049600019F0BCFC804660B9384A39493948882377
:104970001BF08BFA494638481BF087FA88213348E8
:1049800042E0484619F0CEFCE38BA68B4FF6FF724F
:10499000934206F0070645D0022E15D10133E3837A
:1049A0003546484619F0A8FC002841D1274A2B4932
:1049B000284840F231131BF068FA494628481BF09A
:1049C00064FA40F23111DAE7062E13D8DFE806F078
:1049D000092D1212090409006FF085054FF0000837
:1049E000DFE700233B60636883B9C4E9007786B1E1
:1049F0003546F3E71B4917481B4A4FF4E4731BF095
:104A000044FA19484FF4E4711BF036FA1F606760EE
:104A1000EDE7524602212046FFF788FD354628463D
:104A2000BDE8F0876FF00A05D8E76FF00405D5E719
:104A30008AF31188BFF36F8FB8F1000FEFD0002316
:104A40003246394620461BF06EFBE8E75F35020030
:104A50008C35020082310200A1350200B735020018
:104A6000CE35020073360200E3350200F8B5054684
:104A700000F11406EFF31187202383F31288BFF3AC
:104A80006F8F304619F02AFC60B9264A264927481C
:104A900088231BF0FAF9314625481BF0F6F98821E6
:104AA00020482BE0304619F03DFCAC8B04F00704A5
:104AB000022C17D0012C0CBF6FF004046FF085049A
:104AC000304619F019FC38BB164A1A49174840F20B
:104AD00031131BF0DAF9314617481BF0D6F940F2D2
:104AE0003111DDE7EB8B5BB914491048144A40F2F1
:104AF000EF131BF0CAF9124840F2EF111BF0BCF99A
:104B0000013B9BB2EB83002BDAD13A462146284683
:104B1000FFF70CFD2046F8BD87F31188BFF36F8FB8
:104B2000F8E700BF5F3502008C35020082310200D9
:104B3000A1350200B7350200CE35020089360200E9
:104B4000E33502002DE9F0410F460546002850D01C
:104B500000294ED000F11406EFF31188202383F3CF
:104B60001288BFF36F8F304619F0B8FB60B9224A44
:104B70002249234888231BF088F9314621481BF03D
:104B800084F988211C4817E0304619F0CBFB3946E0
:104B90002846AC8B1BF080FA80B104F00704231F79
:104BA000022B0DD918491648184A40F22D231BF044
:104BB0006CF9164840F22D211BF05EF96FF0770476
:104BC000304619F099FB68B90B4A11490C4840F27C
:104BD00031131BF05AF931460E481BF056F940F2DA
:104BE0003111CFE788F31188BFF36F8F2046BDE8FE
:104BF000F0816FF01504F9E75F3502008C35020093
:104C000082310200A135020097360200E33502002E
:104C1000B7350200CE35020008B54268816002F067
:104C20000302022A03460AD0032A4FF0000103D0F0
:104C3000012A0AD1596006E01868596008BD186851
:104C400000225A6058B90020F8E706490648074A8A
:104C500045231BF01AF9054845211BF00DF91AF000
:104C6000C5FAF0E746540200823102000E37020016
:104C70001FB5D0E90123C168029164215943B1FBFA
:104C8000F2F1CDE90021044601680648D21A1BF072
:104C9000E6F8D4E906230449044804B0BDE810400E
:104CA0001BF0DDB834370200EF3A0200743702001F
:104CB000F0B595B0D0F8AC600F6805461BF0D5FE96
:104CC000044608B1037833B91A4A2B460B2101A8D0
:104CD0001AF07CFC01AC694628461BF0D4FE024663
:104CE00028B1154821461BF0BAF800230093009B19
:104CF000CDE90A460EA9F61A28460C961BF0CAFE04
:104D000098B904A81BF0D0FE58B90E980F9D6424E2
:104D1000A0FB0401DDE9042304FB0511FBF7F0F916
:104D20000D900AA8B84715B0F0BD04A81BF0BCFE52
:104D3000F7E700BF993702009C37020000B589B041
:104D4000CDE906010E4806A919F04CFB05AA0D484D
:104D50004FF400611BF08BFE024670B9059B642185
:104D6000C3F500604143C90A02914FF40061CDE9E7
:104D70000001054905481BF072F809B05DF804FB15
:104D8000B14C0000009C0020C4370200C83702006C
:104D900010B5044604481BF062F821460348BDE8FC
:104DA0001040FFF7CBBF00BFFE370200714C000080
:104DB00030B51049104889B000221BF058FF0F4D44
:104DC0000F4900220023CDE9062300240E23CDE95C
:104DD0000334CDE901440B4B00944FF48062284624
:104DE00018F0B0F90849284618F0BCF8204609B078
:104DF00030BD00BF514F00000827002038160020AA
:104E0000C0910020555200001F3802002DE9F047E4
:104E1000DFF85880044607464FF0010914B93846B8
:104E2000BDE8F08794FAA4F5B5FA85F509FA05F31B
:104E30002E0108EB05156FEA030A24EA03042B7B15
:104E4000002BEBD058F806301B694BB946440422BE
:104E500073682846196807EA0A0700F007FBDDE7D0
:104E6000284698470028D9D1F0E700BF3013020048
:104E70002DE9F047DFF8B8902E4CA9EB04038F2BF7
:104E800080460F460BD92C492C4A2D4840F241133D
:104E90001AF0FBFF40F2411128481AF0EDFF2948B3
:104EA0001BF09DF9064660B300252846BDE8F08753
:104EB000237B6BB12368DB680BB1204698472368DE
:104EC0001B69B3B9636804221968204600F0CEFA62
:104ED000013610344C4518D91B49184A18484FF46C
:104EE000A7731AF0D2FF19481AF0CFFF4FF4A77139
:104EF000D2E7204698470028E4D00AFA06F31D437B
:104F0000E6E705464FF0010AE4E7D1D3B8F1000F18
:104F1000CBD0002DC8D02846FFF778FF0546002FDC
:104F2000F7D000214FF4A47018F0FCFEF1E700BFA9
:104F300040130200301302005438020027380200E8
:104F400082310200C848002084380200A5380200DF
:104F5000014817F0F7BA00BFA0130020014B53F827
:104F6000200070477C13020008B5034608462BB1A9
:104F7000044A136000F0BCFD002008BD6FF015006E
:104F8000FBE700BFD410002010B5044C237813B900
:104F9000034817F0D7FA0123237010BDFC880020C6
:104FA000A013002010B504460B481BF018F95CB1A3
:104FB000BFF35B8F094B53E8001F013943E8001230
:104FC000002AF8D1BFF35B8F05481BF05CFE054853
:104FD000BDE8104017F0B6BAC0480020C448002011
:104FE00008270020A01300200020064BBFF35B8F92
:104FF000014653E8000F43E80012002AF9D1BFF33D
:105000005B8F7047C048002070B5FFF7EDFF104C74
:10501000104E0546B44219D90F49104A104840F2C3
:1050200001231AF032FF0F481AF02FFF0B4840F20D
:1050300001211AF021FF63685B792BB123685B685B
:1050400013B12946204698471034E3E7F3D370BDE7
:105050003013020040130200843802002738020097
:1050600082310200A538020010B5044C04492046E4
:10507000FEF7C2FF034B1C6010BD00BF5813002099
:1050800068130200B4480020084A094808B5002304
:105090001370084A1360084A4FF400411360FFF789
:1050A00063FFBDE80840FFF7DFBF00BFFD880020B9
:1050B000DB010200C0480020C44800200146002255
:1050C00001480023FEF7CABF581300200148FFF72C
:1050D000E1B800BF58130020024B01461868FFF7E3
:1050E00061B900BFB44800200148FFF7CDB900BF47
:1050F0005813002070B5304B187800285BD0FFF7AC
:10510000E5FF054660B3BFF35B8F2C4B53E8001FF0
:10511000013943E80012002AF8D1BFF35B8F284C15
:10512000284EB44218D92849284A294840F2F51394
:105130001AF0ABFE27481AF0A8FE244840F2F511F9
:105140001AF09AFE63685B7923B1236829461B68CD
:10515000204698471034E4E7F4D32846FFF7BCFF15
:105160001D4B1E4C1B68002B19DD1BF039FD4FF445
:105170007A72A0FB020302FB0131C30BD4E90020C9
:1051800043EA41439B1A4FEAD13140F2E93261EBE5
:105190000001934271F1000101D3FFF735FFD4E91B
:1051A000003213F57A7342F10002C4E90032BDE81F
:1051B0007040FFF799BF70BDFC880020C4480020F4
:1051C0003013020040130200843802002738020026
:1051D00082310200A5380200C048002000270020CC
:1051E00070B5154D297829BB0120FFF741FE134CFE
:1051F000134EB44217D91349134A14484FF4DD73C0
:105200001AF043FE12481AF040FE0F484FF4DD71C9
:105210001AF032FE63685B791BB1236820469B68F5
:1052200098471034E5E7F5D3FFF764FF0028FBD17A
:1052300001232B7070BD00BFFD88002030130200D9
:105240004013020084380200273802008231020035
:10525000A53802002DE9F047304B314FFB1A1B09EE
:105260000BD13049304A314840F29E331AF00DFEDE
:1052700040F29E312C481AF0FFFD00210846FFF74E
:10528000F7FD044650B340F267684FF000091BF089
:105290005DFE274B274A1B58136033B1264B1B6812
:1052A000092B02DD254817F04DF9DFF890A0002505
:1052B00044B12046FFF7AAFD044618B94FF0FF3865
:1052C0004FF0FF39FFF716FF064628B95DB9424691
:1052D0004B46504617F09EF93546E9E74FF0FF3848
:1052E0004FF0FF39D3E70D4D08E0F0D22B689B69F2
:1052F0001BB100221146284698471035BD42F4D90B
:105300000F49094A094840F292331AF0BEFD0D4890
:105310001AF0BBFD40F29231ACE700BF301302003F
:1053200040130200C4380200273802008231020014
:1053300008000000BC480020C4480020A013002042
:1053400084380200A538020013B52C481AF047FF34
:105350002B4B1B78002B35D0EFF31184202383F3E4
:105360001288BFF36F8F274818F0B8FF68B9264A34
:105370002649274888231AF088FD224925481AF033
:1053800084FD882120481AF077FD1E4818F0CAFFD6
:10539000FFF7B0FE1B4818F0AFFF68B91A4A1E4964
:1053A0001B4840F231131AF070FD16491B481AF0E1
:1053B0006CFD40F23111E5E784F31188BFF36F8F84
:1053C00002B010BD164B1B68002BF9D050B900225B
:1053D0000023CDE9002313484FF40042002319F0C5
:1053E0008DFBEDE70928EBD10E481BF04CFC0E4875
:1053F00002B0BDE8104017F0A5B800BFC4480020B7
:10540000FD880020B84800205F3502008C3502007E
:1054100082310200A1350200B7350200CE3502000C
:10542000BC48002008270020A013002010B5064B20
:105430001B68044698472146A0600448FEF7D2FE48
:10544000BDE81040FFF780BFD410002058130020A3
:10545000044A054B9B1AB1EBD30F34BF52F831000D
:105460000020704798120200301302000E4BC31A3E
:105470001B11013310B5DBB248B90C490C480D4A79
:10548000DF231AF002FD0B48DF211AF0F5FC446817
:10549000237143689A7143681960436801225A7105
:1054A000BDE81040FFF770BD301302006439020000
:1054B000823102002C3902002DE9F04F8FB004AF89
:1054C000C1F34A28B8600D4691467B600C0DB8F1D7
:1054D000000F68D0002607F114034FF0040B4FF0C3
:1054E0000A0AC7F80C80C7E907667E620193CDF807
:1054F00008B0CDF800A007F11C03F9683246484611
:10550000FEF720FBB0F5006F03461CD36C468AB053
:10551000D9F8041004AB2C48C3E9050140F2FF712F
:10552000D9611A464FF400711984284B42F8103F94
:10553000274833464FF41251FFF7BEFFA5462C37DC
:10554000BD46BDE8F08FC0F30A0804F11700184407
:1055500020F0070080083B60FFF7B0FD68F353259B
:10556000044640B33B681B4AC7E9083600F1100106
:1055700007F11403F961CDE900A3CDF808B0F9688B
:1055800007F11C034846FEF7DDFA002813DA12493A
:105590001248134A4FF4A3731AF077FC10484FF4E3
:1055A000A3711AF069FC04F1170020F007008008CD
:1055B000FFF784FD044668F353257B68B9682A46E3
:1055C00020461AF042FEBAE78439020004000001C6
:1055D000F01202001F020200F039020082310200C4
:1055E000C33902002DE9F04F87B0DDE91279DDE91A
:1055F000106A044603919346984627B3CDF800906D
:105600003B46524610210020CDF81490FEF77EF85C
:10561000051E0BDA2649274A274840F265131AF07F
:1056200034FC40F2651123481AF026FCB5F5006FF2
:105630000ADB224A224840F2FF73022107B0BDE88C
:10564000F04F1AF05BBE3D4606F11700284420F0EB
:10565000070004F007048008FFF730FD0BF0070B8C
:10566000E40044EA8B1444EA452444EA065406461E
:10567000A0B19FB1CDF800903B465246294610306C
:10568000FEF744F8002809DA09490A4A0A4840F2B4
:1056900085131AF0FAFB40F28511C4E703994346DB
:1056A0002246304607B0BDE8F04F1AF0CEBD00BF2D
:1056B000EF390200C339020082310200F9390200D9
:1056C000F0120200406820B1034BC01A40F3CF0033
:1056D00070474FF0FF307047981202000EB403B5C8
:1056E00003AB014653F8042B0448019301F05EF923
:1056F00002B05DF804EB03B0704700BF1D57000017
:10570000CA0605D48B064CBF02490349FFF7E6BF22
:10571000704700BF8C430200313A020038B54B6835
:105720001A68CB689A4205460C4602D108461AF020
:1057300009FE6368BFF35B8F53E8002F511C43E8F9
:1057400000100028F8D1BFF35B8FA3689D546368F5
:105750001A68E3689A4209D905490648064A72233D
:105760001AF093FB044872211AF086FB002038BD22
:10577000633A020082310200343A02002DE9F04F10
:1057800089B09B46149B06939DF84CA0159B0593EE
:10579000169B179E049304460D469046BAF1000FDF
:1057A00000F0AD80BAF1040F0BD9A349A34AA44875
:1057B00040F246231AF069FB40F246219F481AF056
:1057C0005BFB06F4807307931AF027FD06F00209CD
:1057D000024600283FD09B492046FFF77FFF07463F
:1057E000B9F1000F08D016F0440F36D196492A4679
:1057F0002046FFF773FF074406F0010353B1934BB4
:10580000934953F82A20934B2046002A08BF1A4692
:10581000FFF764FF06F48073002B4AD006F00803FC
:10582000002B64D1B8F1000F67D08B494246204667
:10583000FFF754FF0546069B3D44002B6ED1049BA9
:10584000002B40F08380F30700F1F08031462046C2
:10585000FFF756FFE4E00746C2E7804B18680028D0
:10586000C9D07F4B4FF47A791B68B5FBF3F54FF441
:105870006163B5FBF0F100FB115509FB05F54FF035
:105880003C0CB1FBF3F203FB1211B5FBF0FEB1FBD4
:10589000FCF300FB1E550CFB131109FB05F50091F1
:1058A000B5FBF0F56F49CDE901E52046FFF716FF9E
:1058B000A1E706F00803EBB16B4B6C4953F82A20C3
:1058C0002046FFF70BFF0546B8F1000F05D06249EF
:1058D00042462046FFF702FF0544BBF1000FAAD065
:1058E00063495A462046FFF7F9FE0544A3E74FF007
:1058F000000BE1E706F00805E6E745469BE7BBF14C
:10590000010F069B06D1DBB9049B002B00F08880B9
:1059100000251BE0002BF7D0564812E05648069BA6
:10592000564922461AF041FA00280CDA5449434AF3
:1059300043484FF428731AF0A8FA4FF428713DE752
:105940004D485546EBE7049B002B65D0DFF83481CA
:10595000DFF83491049F3146102F204628BF1027CE
:10596000FFF7CEFE4FF0000B5D4542DC059B49463C
:105970001A782046FFF7B2FE4FF0010B1BF0070F1D
:1059800003D141462046FFF7A9FE5F4538D9059B64
:10599000494613F80B202046FFF7A0FE0BF1010B40
:1059A000BBF1100FEAD1394920464FF0000BFFF749
:1059B00095FE5A46059B9A5CA2F120015F2928BFFB
:1059C0002E2233492046FFF789FE0BF1010BBBF174
:1059D000100F1AD01BF0070F03D141462046FFF7E6
:1059E0007DFE5F455A46E5D841462046FFF776FEE4
:1059F000EBE741462046FFF771FE0BF1010BB3E7E1
:105A000024492046FFF76AFEC8E7059B3B440593FF
:105A1000049BDB1B04939DD1BAF1000F7FF413AFFD
:105A2000204609B0BDE8F04F1AF08CBC094A08497D
:105A30002046FFF753FE09E7983A0200343A020085
:105A400082310200A33A0200A73A02008C1302003E
:105A5000CC3A0200933A0200CF3A0200D04800202C
:105A6000CC480020B03A0200A0130200D33A020052
:105A7000D93A02005F0302001D570000AD69000023
:105A8000DE3A0200EF3A0200E73A0200F13A020081
:105A9000F33A0200ED3A020073B542F20F738B4203
:105AA00028BF0B4605680F4A04460521684619F0D1
:105AB0008DFD63680C495B680646042228461AF08F
:105AC00033FC63683246694628465B681AF02CFC52
:105AD000636806495B68172228461AF025FC02B065
